:100000000C9462000C948A000C948A000C948A0070
:100010000C948A000C948A000C948A000C948A0038
:100020000C948A000C948A000C948A000C94EB01C6
:100030000C948A000C948A000C948A000C948A0018
:100040000C9476020C948A000C94C2050C9404065D
:100050000C948A000C948A000C948A000C948A00F8
:100060000C948A000C948A00000000070002010032
:100070000003040600000000000000000102040864
:100080001020408001020408102001020408102002
:10009000040404040404040402020202020203032E
:1000A00003030303000000002300260029000000D2
:1000B0000000250028002B0000000000240027007D
:1000C0002A00BF0611241FBECFEFD8E0DEBFCDBF90
:1000D00011E0A0E0B1E0E8EDFEE002C005900D9275
:1000E000A831B107D9F725E0A8E1B1E001C01D9220
:1000F000A136B207E1F710E0C4ECD0E004C02297CB
:10010000FE010E945707C23CD107C9F70E942B0588
:100110000C9415070C9400008F929F92AF92BF929F
:10012000CF92DF92EF92FF924B015C0169017A015D
:1001300061E070E080E090E0C114D104E104F104DA
:1001400061F021E0C21AD108E108F1089B01AC017D
:10015000C501B4010E941807EFCFFF90EF90DF9028
:10016000CF90BF90AF909F908F90089561E0809165
:1001700000010E946D03E6EBF0E080818F798083BF
:10018000E0EBF0E0808183608083A1EBB0E08C91B4
:10019000877F8C9380818F738068808380818F7C40
:1001A00080838C91887F81608C9387E391E00E94AB
:1001B0005E058093B3008091220190912301A0916C
:1001C0002401B09125010196A11DB11D809322014A
:1001D00090932301A0932401B0932501F894E1E8C2
:1001E000F0E08081877E88608083A0E8B0E08C9119
:1001F0008C7F8C938081887F8160808380ED97E005
:100200009093890080938800EFE6F0E0808182601F
:1002100080831092260110922701109228011092DB
:100220002901789408958091180190911901892BE2
:1002300041F481E090E090931901809318010C94AF
:10024000B60008958F929F92AF92BF92CF92DF92A5
:10025000EF92FF9287E391E00E9438050A979CF4A1
:10026000809102010E94DC0361E0892B09F060E0CB
:10027000809102010E94A60364E670E080E090E0B5
:100280000E94E302E7CF10922A0110922B011092F4
:100290002C0110922D0189E0C82ED12CE12CF12CDB
:1002A00087E391E00E945E05C0974C01AA2497FC69
:1002B000A094BA2C80921E0190921F01A09220015E
:1002C000B0922101A70196016AE070E080E090E021
:1002D0000E948C00A50194010E94180760931A01E6
:1002E00070931B0180931C0190931D0180902A0143
:1002F00090902B01A0902C01B0902D01860E971E9E
:10030000A81EB91E80922A0190922B01A0922C0166
:10031000B0922D0181E0C81AD108E108F1088FEFF1
:10032000C816D806E806F80609F0BACF4AE050E049
:1003300060E870E087E391E00E94130587E391E0B5
:100340000E943805803491059CF4809102010E943E
:10035000DC0361E0892B09F060E0809102010E94DA
:10036000A60364E670E080E090E00E94E302E6CF3E
:10037000109219011092180110922201109223017B
:10038000109224011092250110922601109227014B
:100390001092280110922901FF90EF90DF90CF90EA
:1003A000BF90AF909F908F900895EFE6F0E080812E
:1003B0008D7F8083E1E8F0E080818E7F8083E1EBB8
:1003C000F0E080818E7F808360E0809100010E9458
:1003D000A6030C9422011F920F920FB60F921124C4
:1003E0002F933F934F935F936F937F938F939F933D
:1003F000AF93BF93EF93FF93409126015091270154
:10040000609128017091290180912A0190912B011E
:10041000A0912C01B0912D01481759076A077B075D
:10042000E8F587E391E00E945E058093B300809138
:10043000220190912301A0912401B0912501019600
:10044000A11DB11D8093220190932301A09324014B
:10045000B093250140912601509127016091280118
:10046000709129014F5F5F4F6F4F7F4F409326017F
:100470005093270160932801709329019170AA2756
:10048000BB27892B8A2B8B2B59F44AE050E060E084
:1004900072E087E391E00E94130502C00E94D5013B
:1004A000FF91EF91BF91AF919F918F917F916F914C
:1004B0005F914F913F912F910F900FBE0F901F9022
:1004C000189561E0809102010E946D0340E052ECBA
:1004D00061E070E087E391E00E943E0664E071E035
:1004E00087E391E00E945E040C9422011F920F9218
:1004F0000FB60F9211242F933F938F939F93AF9337
:10050000BF9380912F0190913001A0913101B09162
:10051000320130912E0123E0230F2D3720F4019674
:10052000A11DB11D05C026E8230F0296A11DB11D16
:1005300020932E0180932F0190933001A0933101DD
:10054000B09332018091330190913401A091350133
:10055000B09136010196A11DB11D80933301909396
:100560003401A0933501B0933601BF91AF919F91B3
:100570008F913F912F910F900FBE0F901F90189564
:100580003FB7F8948091330190913401A0913501E7
:10059000B091360126B5A89B05C02F3F19F00196F2
:1005A000A11DB11D3FBF6627782F892F9A2F620F9B
:1005B000711D811D911D42E0660F771F881F991FD5
:1005C0004A95D1F70895CF92DF92EF92FF92CF93A1
:1005D000DF936B017C010E94C002EB01C114D104C6
:1005E000E104F10479F00E94C0026C1B7D0B683EAF
:1005F0007340A0F381E0C81AD108E108F108C8519E
:10060000DC4FECCFDF91CF91FF90EF90DF90CF9058
:100610000895789484B5826084BD84B5816084BD7A
:1006200085B5826085BD85B5816085BDEEE6F0E06B
:10063000808181608083E1E8F0E0108280818260C7
:100640008083808181608083E0E8F0E08081816048
:100650008083E1EBF0E0808184608083E0EBF0E078
:10066000808181608083EAE7F0E08081846080831C
:1006700080818260808380818160808380818068C6
:1006800080831092C1000895833081F028F4813076
:1006900099F08230A1F008958630A9F08730B9F042
:1006A0008430D1F4809180008F7D03C080918000E0
:1006B0008F7780938000089584B58F7702C084B5CA
:1006C0008F7D84BD08958091B0008F7703C08091A5
:1006D000B0008F7D8093B0000895CF93DF9390E0BA
:1006E000FC01E458FF4F2491FC01E057FF4F849137
:1006F000882349F190E0880F991FFC01E854FF4FCF
:10070000A591B49182559F4FFC01C591D4919FB79B
:10071000611108C0F8948C91209582238C93888174
:1007200082230AC0623051F4F8948C91322F3095B4
:1007300083238C938881822B888304C0F8948C91C6
:10074000822B8C939FBFDF91CF9108950F931F93BE
:10075000CF93DF931F92CDB7DEB7282F30E0F9019A
:10076000E859FF4F8491F901E458FF4F1491F901C2
:10077000E057FF4F04910023C9F0882321F06983DB
:100780000E9444036981E02FF0E0EE0FFF1FE25565
:10079000FF4FA591B4919FB7F8948C91611103C05C
:1007A0001095812301C0812B8C939FBF0F90DF9107
:1007B000CF911F910F910895CF93DF93282F30E0B1
:1007C000F901E859FF4F8491F901E458FF4FD491A2
:1007D000F901E057FF4FC491CC2391F081110E94A1
:1007E0004403EC2FF0E0EE0FFF1FEC55FF4FA591F7
:1007F000B4912C912D2381E090E021F480E002C09F
:1008000080E090E0DF91CF910895CF92DF92EF9258
:10081000FF920F931F93CF93DF936C017A01EB014B
:10082000E60EF71E00E010E0CE15DF0561F06991DD
:10083000D601ED91FC910190F081E02DC601099562
:10084000080F191FF1CFC801DF91CF911F910F91B0
:10085000FF90EF90DF90CF9008956115710581F0C2
:10086000DB010D900020E9F7AD0141505109461B15
:10087000570BDC01ED91FC910280F381E02D09948E
:1008800080E090E00895DC01ED91FC910190F08111
:10089000E02D09940F931F93CF93DF93EC016DE04C
:1008A0000E9443048C016AE0CE010E944304800F41
:1008B000911FDF91CF911F910F9108950F931F9377
:1008C000CF93DF93EC010E942D048C01CE010E9496
:1008D0004A04800F911FDF91CF911F910F910895CE
:1008E0008F929F92AF92BF92CF92DF92EF92FF9240
:1008F0000F931F93CF93DF93CDB7DEB7A1970FB6BA
:10090000F894DEBF0FBECDBF7C01C42EE52FCB0116
:10091000D22E19A221E02D1510F02AE0D22E8E0140
:100920000F5D1F4F8D2C912CA12CB12C6C2D7E2F87
:10093000A50194010E9428078C2DD29E80191124B4
:10094000015011098A3014F4805D01C0895CF801FE
:100950008083211531054105510521F0C22EE32F79
:10096000CA01E4CFB801C7010E942D04A1960FB6B9
:10097000F894DEBF0FBECDBFDF91CF911F910F91D5
:10098000FF90EF90DF90CF90BF90AF909F908F90AF
:100990000895CF92DF92EF92FF920F931F93CF9320
:1009A000DF93EC016A017B012115310579F4E881BF
:1009B000F9810190F081E02D642FDF91CF911F919B
:1009C0000F91FF90EF90DF90CF9009942A3031057E
:1009D000E9F477FF1AC06DE20E9443048C014427BA
:1009E0005527BA014C195D096E097F092AE0CE012D
:1009F0000E947004800F911FDF91CF911F910F9182
:100A0000FF90EF90DF90CF9008952AE0B701A60104
:100A1000CE01DF91CF911F910F91FF90EF90DF906A
:100A2000CF900C9470040F931F93CF93DF93EC013E
:100A30009A01AB01662757FD6095762F0E94C90485
:100A40008C01CE010E944A04800F911FDF91CF914B
:100A50001F910F9108950E9409030E946102CBEF3C
:100A6000D5E00E9413012097E1F30E94FB05F9CF26
:100A7000FC0124853585F901FE5F808191813296E4
:100A800020813181821B930B91700895FC01848534
:100A90009585FC01FE5F4081518132962081318134
:100AA0004217530741F00190F081E02DE80FF91F44
:100AB000808190E008958FEF9FEF0895FC01848579
:100AC0009585FC01FE5F4081518132962081318104
:100AD0004217530771F0A081B181A80FB91F8C9103
:100AE000208131812F5F3F4F31703183208390E02F
:100AF00008958FEF9FEF0895FC0181A1882329F0CD
:100B0000A489B5898C9186FFFBCF11A20895CF935C
:100B1000DF93FC0126853785D901BE5F8D919C91BD
:100B2000119701969170E901CE5FDD4F488159819F
:100B300084179507D9F30D90BC91A02DA20FB31F78
:100B40006C93A685B785BE5F11969C938E93A689FC
:100B5000B7892C9181E090E0078C02C0880F991F23
:100B60000A94E2F7282B2C9381E081A30488F5896D
:100B7000E02D80818064808381E090E0DF91CF91DF
:100B8000089508951F920F920FB60F9211242F937C
:100B90003F934F938F939F93EF93FF938091C00068
:100BA00082FD1BC04091C60080915D0590915E055D
:100BB0000196917020915F0530916005821793072F
:100BC00071F0E0915D05F0915E05E35AFC4F4083C2
:100BD00090935E0580935D0502C08091C600FF91F1
:100BE000EF919F918F914F913F912F910F900FBE59
:100BF0000F901F90189587E391E00E943805892B8C
:100C000011F00C94C10508951F920F920FB60F9228
:100C100011242F933F938F939F93EF93FF932091F2
:100C2000590330915A0380915B0390915C0328171C
:100C3000390731F48091C1008F7D8093C10013C0CA
:100C4000E0915B03F0915C03E75AFE4F20818091B5
:100C50005B0390915C030196917090935C03809389
:100C60005B032093C600FF91EF919F918F913F917D
:100C70002F910F900FBE0F901F901895CF92DF927B
:100C8000EF92FF92CF93DF93EC016A017B01411554
:100C900081EE580761057105F9F0EC89FD8981E065
:100CA00090E008A002C0880F991F0A94E2F78083A1
:100CB00060E079E08DE390E0A70196010E942807AB
:100CC0002150310941095109569547953795279586
:100CD000211580E1380798F0EC89FD89108260E8E1
:100CE00074E88EE190E0A70196010E942807215048
:100CF0003109410951095695479537952795E88956
:100D0000F9893083EA89FB89208319A2EE89FF895A
:100D1000408181E090E09C010C8C02C0220F331FC7
:100D20000A94E2F7422B4083EE89FF8940819C01BF
:100D30000D8C02C0220F331F0A94E2F7422B40832E
:100D4000EE89FF8940819C010E8C02C0220F331F67
:100D50000A94E2F7422B4083EE89FF8920810F8CB1
:100D600002C0880F991F0A94E2F78095822380833E
:100D7000DF91CF91FF90EF90DF90CF900895109288
:100D80003A011092390188EE93E0A0E0B0E0809340
:100D90003B0190933C01A0933D01B0933E018BE059
:100DA00091E090933801809337018DE593E0909323
:100DB00044018093430189E591E09093460180933B
:100DC000450185EC90E0909348018093470184ECC5
:100DD00090E090934A018093490180EC90E09093D9
:100DE0004C0180934B0181EC90E090934E018093F5
:100DF0004D0182EC90E09093500180934F0186EC7E
:100E000090E0909352018093510184E080935301CC
:100E100083E08093540187E08093550185E08093BF
:100E2000560181E0809357010895F8940C946A0765
:100E3000DB018F939F930E944A07BF91AF91A29FBE
:100E4000800D911DA39F900DB29F900D11240895C8
:100E5000A1E21A2EAA1BBB1BFD010DC0AA1FBB1FBE
:100E6000EE1FFF1FA217B307E407F50720F0A21B30
:100E7000B30BE40BF50B661F771F881F991F1A949D
:100E800069F760957095809590959B01AC01BD01C7
:100E9000CF0108950E945B07A59F900DB49F900D10
:100EA000A49F800D911D11240895EE0FFF1F059042
:100EB000F491E02D0994A29FB001B39FC001A39FBC
:100EC000700D811D1124911DB29F700D811D112483
:080ED000911D0895F894FFCF75
:100ED8000B000D00474F000000000087050504388F
:080EE800055E0546057C0500CE
:00000001FF
