:100000000C945D000C9485000C9485000C94850084
:100010000C9485000C9485000C9485000C9485004C
:100020000C9485000C9485000C9485000C94FD00C4
:100030000C9485000C9485000C9485000C9485002C
:100040000C9451060C9485000C94FE040C9440050D
:100050000C9485000C9485000C9485000C9485000C
:100060000C9485000C94850000000007000201003C
:100070000003040600000000000000000102040864
:100080001020408001020408102001020408102002
:10009000040404040404040402020202020203032E
:1000A0000303030300000000250028002B000000CC
:1000B0000000240027002A00FB0511241FBECFEFFB
:1000C000D8E0DEBFCDBF11E0A0E0B1E0E6E5FEE0A4
:1000D00002C005900D92A834B107D9F726E0A8E434
:1000E000B1E001C01D92AA38B207E1F710E0CAEBF7
:1000F000D0E004C02297FE010E942507C83BD1072B
:10010000C9F70E9467040C94D6060C94000061E0C5
:10011000809102010E94AA0240E052EC61E070E08E
:1001200087E592E00E947A0564E071E087E592E05D
:100130000C94740361E0809100010E94AA02E6EB36
:10014000F0E080818F798083E0EBF0E08081836054
:100150008083A1EBB0E08C91877F8C9380818F733B
:100160008068808380818F7C80838C91887F816090
:100170008C93E0915201F0915301E95AFE4F808136
:100180008093B300F894E1E8F0E08081877E886096
:100190008083A0E8B0E08C918C7F8C938081887FF5
:1001A0008160808380ED97E0909389008093880040
:1001B000EFE6F0E080818260808381E090E09093C0
:1001C0004901809348017894089510924901109252
:1001D0004801EFE6F0E080818D7F8083E1E8F0E088
:1001E00080818E7F8083E1EBF0E080818E7F808351
:1001F00060E0809100010C94E3021F920F920FB611
:100200000F9211242F933F934F935F936F937F939C
:100210008F939F93AF93BF93EF93FF9340914E01C2
:1002200050914F01609150017091510180914A01AC
:1002300090914B01A0914C01B0914D014817590785
:100240006A077B07B0F5E0915201F0915301E95A3A
:10025000FE4F80818093B3008091520190915301B1
:1002600020915401309155018217930721F1019695
:100270008F3F910509F02CF4909353018093520124
:1002800004C0109253011092520180914E0190913E
:100290004F01A0915001B09151010196A11DB11DD6
:1002A00080934E0190934F01A0935001B093510160
:1002B00002C00E94E500FF91EF91BF91AF919F9125
:1002C0008F917F916F915F914F913F912F910F90FF
:1002D0000FBE0F901F901895CF93DF93C0915401DC
:1002E000D091550187E592E00E949A04C95ADE4FE9
:1002F00088838091540190915501019660E071E0EE
:100300000E94D906909355018093540180914A012F
:1003100090914B01A0914C01B0914D010196A11D0E
:10032000B11D80934A0190934B01A0934C01B0936F
:100330004D01DF91CF910895CF93DF9380914801D4
:1003400090914901892BD9F480914A0190914B01F8
:10035000A0914C01B0914D0140914E0150914F013F
:100360006091500170915101841B950BA60BB70B46
:1003700080349105A105B10510F00E949A00C0E0FB
:10038000D1E087E592E00E947404181619060CF07B
:10039000B5C080915401909155010196BE010E9413
:1003A000D90620915201309153018217930749F3E6
:1003B00040914A0150914B0160914C0170914D0167
:1003C000DB01CA018F739927AA27BB27892B8A2BA8
:1003D0008B2B09F087C080914E0190914F01A09125
:1003E0005001B0915101813020E19207A105B10582
:1003F000B0F058506109710940934A0150934B0184
:1004000060934C0170934D019850A109B1098093FC
:100410004E0190934F01A0935001B093510167E0BA
:1004200071E087E592E00E94740387E592E00E9404
:100430009A0480935601803709F44EC0F0F589364E
:1004400009F09FCF63E171E087E592E00E945703D6
:1004500040914A0150914B0160914C0170914D01C6
:100460002AE030E087E592E00E94550462E271E004
:1004700087E592E00E94570340914E0150914F0151
:1004800060915001709151012AE030E087E592E0DF
:100490000E9455046AE271E087E592E00E945703EA
:1004A00060914801709149014AE050E087E592E08F
:1004B0000E94290463E371E01CC08337B1F08437E4
:1004C00009F05FCF4AE050E060E487E592E00E94E7
:1004D0004E0469E071E00DC087E592E00E9474046B
:1004E000892BD1F30E946C014CCF0E94E5006EE095
:1004F00071E087E592E00E94740343CFDF91CF91D2
:100500000895833081F028F4813099F08230A1F091
:1005100008958630A9F08730B9F08430D1F4809105
:1005200080008F7D03C0809180008F778093800052
:10053000089584B58F7702C084B58F7D84BD0895FA
:100540008091B0008F7703C08091B0008F7D809341
:10055000B0000895CF93DF9390E0FC01E458FF4F83
:100560002491FC01E057FF4F8491882349F190E0EA
:10057000880F991FFC01E255FF4FA591B4918C554E
:100580009F4FFC01C591D4919FB7611108C0F894A9
:100590008C91209582238C93888182230AC06230BB
:1005A00051F4F8948C91322F309583238C93888169
:1005B000822B888304C0F8948C91822B8C939FBFEC
:1005C000DF91CF9108950F931F93CF93DF931F92E5
:1005D000CDB7DEB7282F30E0F901E859FF4F8491FD
:1005E000F901E458FF4F1491F901E057FF4F0491CE
:1005F0000023C9F0882321F069830E948102698168
:10060000E02FF0E0EE0FFF1FEC55FF4FA591B491E6
:100610009FB7F8948C91611103C01095812301C09C
:10062000812B8C939FBF0F90DF91CF911F910F91E2
:100630000895CF92DF92EF92FF920F931F93CF9383
:10064000DF936C017A01EB01E60EF71E00E010E08B
:10065000CE15DF0561F06991D601ED91FC91019015
:10066000F081E02DC6010995080F191FF1CFC801CF
:10067000DF91CF911F910F91FF90EF90DF90CF907E
:1006800008956115710581F0DB010D900020E9F7F7
:10069000AD0141505109461B570BDC01ED91FC9116
:1006A0000280F381E02D099480E090E008950C949D
:1006B0004103DC01ED91FC910190F081E02D099462
:1006C0000F931F93CF93DF93EC016DE00E945903CA
:1006D0008C016AE0CE010E945903800F911FDF91C7
:1006E000CF911F910F9108950F931F93CF93DF9395
:1006F000EC010E9441038C01CE010E946003800F37
:10070000911FDF91CF911F910F9108958F929F922A
:10071000AF92BF92CF92DF92EF92FF920F931F930F
:10072000CF93DF93CDB7DEB7A1970FB6F894DEBFB6
:100730000FBECDBF7C01C42EE52FCB01D22E19A256
:1007400021E02D1510F02AE0D22E8E010F5D1F4FF3
:100750008D2C912CA12CB12C6C2D7E2FA5019401F8
:100760000E94ED068C2DD29E801911240150110992
:100770008A3014F4805D01C0895CF8018083211502
:1007800031054105510521F0C22EE32FCA01E4CF06
:10079000B801C7010E944103A1960FB6F894DEBFCD
:1007A0000FBECDBFDF91CF911F910F91FF90EF90C2
:1007B000DF90CF90BF90AF909F908F900895CF9291
:1007C000DF92EF92FF920F931F93CF93DF93EC0191
:1007D0006A017B012115310579F4E881F9810190E5
:1007E000F081E02D642FDF91CF911F910F91FF9049
:1007F000EF90DF90CF9009942A303105E9F477FF2C
:100800001AC06DE20E9459038C0144275527BA0192
:100810004C195D096E097F092AE0CE010E9486030A
:10082000800F911FDF91CF911F910F91FF90EF905B
:10083000DF90CF9008952AE0B701A601CE01DF91A5
:10084000CF911F910F91FF90EF90DF90CF900C947C
:1008500086030F931F93CF93DF93EC019A01AB01B3
:10086000662757FD6095762F0E94DF038C01CE012D
:100870000E946003800F911FDF91CF911F910F9114
:1008800008952115310541F4DC01ED91FC910190B1
:10089000F081E02D642F09940C9486039A01462F71
:1008A00050E060E070E00C9441040F931F93CF93ED
:1008B000DF93EC010E9441048C01CE010E94600391
:1008C000800F911FDF91CF911F910F9108950E948A
:1008D0009B060E948700C7E3D5E00E949C012097F9
:1008E000E1F30E943705F9CFFC0124853585F90134
:1008F000FE5F80819181329620813181821B930B32
:1009000091700895FC0184859585FC01FE5F40810E
:1009100051813296208131814217530741F0019075
:10092000F081E02DE80FF91F808190E008958FEFAE
:100930009FEF0895FC0184859585FC01FE5F408151
:1009400051813296208131814217530771F0A08185
:10095000B181A80FB91F8C91208131812F5F3F4F4A
:1009600031703183208390E008958FEF9FEF0895D9
:10097000FC0181A1882329F0A489B5898C9186FF87
:10098000FBCF11A20895CF93DF93FC012685378515
:10099000D901BE5F8D919C91119701969170E901EB
:1009A000CE5FDD4F4881598184179507D9F30D90AB
:1009B000BC91A02DA20FB31F6C93A685B785BE5F17
:1009C00011969C938E93A689B7892C9181E090E033
:1009D000078C02C0880F991F0A94E2F7282B2C93EA
:1009E00081E081A30488F589E02D80818064808383
:1009F00081E090E0DF91CF91089508951F920F92CA
:100A00000FB60F9211242F933F934F938F939F9381
:100A1000EF93FF938091C00082FD1BC04091C60000
:100A200080917D0690917E060196917020917F06BF
:100A3000309180068217930771F0E0917D06F09166
:100A40007E06E358FB4F408390937E0680937D069D
:100A500002C08091C600FF91EF919F918F914F91BD
:100A60003F912F910F900FBE0F901F90189587E523
:100A700092E00E947404892B11F00C94FD040895F7
:100A80001F920F920FB60F9211242F933F938F93C3
:100A90009F93EF93FF932091790430917A04809192
:100AA0007B0490917C042817390731F48091C100B0
:100AB0008F7D8093C10013C0E0917B04F0917C0492
:100AC000E758FD4F208180917B0490917C04019632
:100AD000917090937C0480937B042093C600FF91D7
:100AE000EF919F918F913F912F910F900FBE0F909B
:100AF0001F901895CF92DF92EF92FF92CF93DF93E2
:100B0000EC016A017B01411581EE58076105710511
:100B1000F9F0EC89FD8981E090E008A002C0880F1F
:100B2000991F0A94E2F7808360E079E08DE390E01A
:100B3000A70196010E94ED06215031094109510992
:100B40005695479537952795211580E1380798F0F8
:100B5000EC89FD89108260E874E88EE190E0A701DD
:100B600096010E94ED06215031094109510956951F
:100B7000479537952795E889F9893083EA89FB8974
:100B8000208319A2EE89FF89408181E090E09C01D9
:100B90000C8C02C0220F331F0A94E2F7422B4083D1
:100BA000EE89FF8940819C010D8C02C0220F331F0A
:100BB0000A94E2F7422B4083EE89FF8940819C0131
:100BC0000E8C02C0220F331F0A94E2F7422B40839F
:100BD000EE89FF8920810F8C02C0880F991F0A942B
:100BE000E2F7809582238083DF91CF91FF90EF9091
:100BF000DF90CF90089510925A021092590288EE19
:100C000093E0A0E0B0E080935B0290935C02A0933D
:100C10005D02B0935E028CE391E090935802809362
:100C200057028DE794E0909364028093630289E712
:100C300092E0909366028093650285EC90E0909339
:100C400068028093670284EC90E090936A0280933C
:100C5000690280EC90E090936C0280936B0281ECCF
:100C600090E090936E0280936D0282EC90E09093FE
:100C7000700280936F0286EC90E0909372028093F2
:100C8000710284E08093730283E08093740287E0B2
:100C90008093750285E08093760281E080937702ED
:100CA00008951F920F920FB60F9211242F933F9326
:100CB0008F939F93AF93BF93809182069091830609
:100CC000A0918406B09185063091810623E0230F20
:100CD0002D3720F40196A11DB11D05C026E8230F74
:100CE0000296A11DB11D20938106809382069093E8
:100CF0008306A0938406B093850680918606909122
:100D00008706A0918806B09189060196A11DB11DA4
:100D10008093860690938706A0938806B0938906F1
:100D2000BF91AF919F918F913F912F910F900FBEE7
:100D30000F901F901895789484B5826084BD84B517
:100D4000816084BD85B5826085BD85B5816085BDC6
:100D5000EEE6F0E0808181608083E1E8F0E01082DF
:100D6000808182608083808181608083E0E8F0E020
:100D7000808181608083E1EBF0E08081846080830A
:100D8000E0EBF0E0808181608083EAE7F0E0808141
:100D900084608083808182608083808181608083A1
:100DA0008081806880831092C1000895F8940C942B
:100DB000290797FB072E16F4009407D077FD09D07A
:100DC0000E940F0707FC05D03EF4909581959F4F38
:100DD0000895709561957F4F0895A1E21A2EAA1B80
:100DE000BB1BFD010DC0AA1FBB1FEE1FFF1FA217DB
:100DF000B307E407F50720F0A21BB30BE40BF50BD8
:100E0000661F771F881F991F1A9469F76095709560
:100E1000809590959B01AC01BD01CF010895AA1B5F
:100E2000BB1B51E107C0AA1FBB1FA617B70710F0D5
:100E3000A61BB70B881F991F5A95A9F78095909507
:100E4000BC01CD010895EE0FFF1F0590F491E02D38
:060E50000994F894FFCFA5
:100E56000B000D00474F003F0041434B74004143D8
:100E66004B73004279746573526563656976656490
:100E76003A0073616D706C653A00506C6179696E09
:100E8600673A0041434B690000000000C3041903A0
:080E960074049A048204B804FC
:00000001FF
