:100000000C945D000C9485000C9485000C94850084
:100010000C9485000C9485000C9485000C9485004C
:100020000C9485000C9485000C9485000C940B01B5
:100030000C9485000C9485000C9485000C9485002C
:100040000C9478060C9485000C9425050C94670597
:100050000C9485000C9485000C9485000C9485000C
:100060000C9485000C94850000000007000201003C
:100070000003040600000000000000000102040864
:100080001020408001020408102001020408102002
:10009000040404040404040402020202020203032E
:1000A0000303030300000000250028002B000000CC
:1000B0000000240027002A00220611241FBECFEFD3
:1000C000D8E0DEBFCDBF11E0A0E0B1E0E4EAFEE0A1
:1000D00002C005900D92A435B107D9F726E0A4E53A
:1000E000B1E001C01D92A631B207E1F710E0CAEB02
:1000F000D0E004C02297FE010E944C07C83BD10704
:10010000C9F70E948E040C94FD060C940000CF9356
:10011000DF9361E0809104010E94D102C0E0D1E050
:1001200061E088810E94D10260E088810E940A0318
:1001300040E052EC61E070E083EE91E00E94A105A6
:1001400066E071E083EE91E0DF91CF910C949B0328
:1001500061E0809102010E94D102E6EBF0E0808133
:100160008F798083E0EBF0E0808183608083A1EB76
:10017000B0E08C91877F8C9380818F7380688083BF
:1001800080818F7C80838C91887F81608C93E091CB
:100190005E01F0915F01ED59FE4F80818093B300C5
:1001A000F894E1E8F0E08081877E88608083A0E8B1
:1001B000B0E08C918C7F8C938081887F816080837C
:1001C00080ED97E09093890080938800EFE6F0E05F
:1001D00080818260808381E090E0909355018093DC
:1001E0005401789408951092550110925401EFE64D
:1001F000F0E080818D7F8083E1E8F0E080818E7F78
:100200008083E1EBF0E080818E7F808360E08091ED
:1002100002010C940A031F920F920FB60F92112441
:100220002F933F934F935F936F937F938F939F93FE
:10023000AF93BF93EF93FF9340915A0150915B01AD
:1002400060915C0170915D01809156019091570120
:10025000A0915801B0915901481759076A077B07C7
:10026000A8F5E0915E01F0915F01ED59FE4F8081AC
:100270008093B30080915E0190915F0120916001B5
:10028000309161018217930719F101968038910529
:100290002CF490935F0180935E0104C010925F0183
:1002A00010925E0180915A0190915B01A0915C01D6
:1002B000B0915D010196A11DB11D80935A019093EB
:1002C0005B01A0935C01B0935D0102C00E94F3004A
:1002D000FF91EF91BF91AF919F918F917F916F911E
:1002E0005F914F913F912F910F900FBE0F901F90F4
:1002F0001895CF93DF93C0916001D091610183EE97
:1003000091E00E94C104CD59DE4F88838091600145
:1003100090916101019660E870E00E94000790935F
:100320006101809360018091560190915701A091E5
:100330005801B09159010196A11DB11D809356013C
:1003400090935701A0935801B0935901DF91CF9139
:100350000895CF93DF938091540190915501892B9B
:1003600019F0C0E8D0E02BC0809156019091570160
:10037000A0915801B091590140915A0150915B01EF
:1003800060915C0170915D01841B950BA60BB70B0E
:1003900080349105A105B10520F30E94A800E1CFAA
:1003A00080916001909161010196BE010E94000759
:1003B00020915E0130915F018217930741F483EE33
:1003C00091E00E949B041816190654F3BEC0409198
:1003D0005601509157016091580170915901DB010C
:1003E000CA018F739927AA27BB27892B8A2B8B2BAE
:1003F00009F0A8C080915A0190915B01A0915C0125
:10040000B0915D01813028E09207A105B105B0F0FF
:1004100054506109710940935601509357016093FC
:100420005801709359019450A109B10980935A0160
:1004300090935B01A0935C01B0935D0183EE91E02A
:100440000E94C104809362018D3609F461C008F0F6
:1004500041C08D3409F464C0893609F06CC063E191
:1004600071E083EE91E00E947E034091560150912D
:10047000570160915801709159012AE030E083EEF4
:1004800091E00E947C0462E271E083EE91E00E94C0
:100490007E0340915A0150915B0160915C01709123
:1004A0005D012AE030E083EE91E00E947C046AE284
:1004B00071E083EE91E00E947E036091540170919F
:1004C00055014AE050E083EE91E00E94500463E35E
:1004D00071E02DC08337B9F0843759F0803759F572
:1004E00083EE91E00E949B04892BD1F30E94790155
:1004F00022C04AE050E060E483EE91E00E9475047F
:1005000069E071E014C00E94F3006EE071E00FC07A
:1005100061E0809100010E940A0368E371E007C076
:1005200060E0809100010E940A036DE371E083EEB8
:1005300091E00E949B0362E471E083EE91E00E94EF
:100540009B033DCF0E9479013ACFDF91CF9108956F
:10055000833081F028F4813099F08230A1F0089541
:100560008630A9F08730B9F08430D1F480918000D2
:100570008F7D03C0809180008F77809380000895E5
:1005800084B58F7702C084B58F7D84BD0895809136
:10059000B0008F7703C08091B0008F7D8093B00052
:1005A0000895CF93DF9390E0FC01E458FF4F24912E
:1005B000FC01E057FF4F8491882349F190E0880FB8
:1005C000991FFC01E255FF4FA591B4918C559F4FA7
:1005D000FC01C591D4919FB7611108C0F8948C912A
:1005E000209582238C93888182230AC0623051F443
:1005F000F8948C91322F309583238C938881822BB1
:10060000888304C0F8948C91822B8C939FBFDF91D8
:10061000CF9108950F931F93CF93DF931F92CDB780
:10062000DEB7282F30E0F901E859FF4F8491F90136
:10063000E458FF4F1491F901E057FF4F0491002354
:10064000C9F0882321F069830E94A8026981E02F04
:10065000F0E0EE0FFF1FEC55FF4FA591B4919FB74F
:10066000F8948C91611103C01095812301C0812BF6
:100670008C939FBF0F90DF91CF911F910F910895A1
:10068000CF92DF92EF92FF920F931F93CF93DF935E
:100690006C017A01EB01E60EF71E00E010E0CE15CA
:1006A000DF0561F06991D601ED91FC910190F08137
:1006B000E02DC6010995080F191FF1CFC801DF9180
:1006C000CF911F910F91FF90EF90DF90CF90089501
:1006D0006115710581F0DB010D900020E9F7AD0196
:1006E00041505109461B570BDC01ED91FC910280F2
:1006F000F381E02D099480E090E008950C94680364
:10070000DC01ED91FC910190F081E02D09940F93B3
:100710001F93CF93DF93EC016DE00E9480038C0167
:100720006AE0CE010E948003800F911FDF91CF917C
:100730001F910F9108950F931F93CF93DF93EC01B7
:100740000E9468038C01CE010E948703800F911FD5
:10075000DF91CF911F910F9108958F929F92AF9249
:10076000BF92CF92DF92EF92FF920F931F93CF939E
:10077000DF93CDB7DEB7A1970FB6F894DEBF0FBEFB
:10078000CDBF7C01C42EE52FCB01D22E19A221E0D2
:100790002D1510F02AE0D22E8E010F5D1F4F8D2CEB
:1007A000912CA12CB12C6C2D7E2FA50194010E94BF
:1007B00014078C2DD29E80191124015011098A3002
:1007C00014F4805D01C0895CF80180832115310536
:1007D0004105510521F0C22EE32FCA01E4CFB80133
:1007E000C7010E946803A1960FB6F894DEBF0FBE42
:1007F000CDBFDF91CF911F910F91FF90EF90DF90D0
:10080000CF90BF90AF909F908F900895CF92DF923E
:10081000EF92FF920F931F93CF93DF93EC016A0146
:100820007B012115310579F4E881F9810190F0818E
:10083000E02D642FDF91CF911F910F91FF90EF90EA
:10084000DF90CF9009942A303105E9F477FF1AC080
:100850006DE20E9480038C0144275527BA014C1990
:100860005D096E097F092AE0CE010E94AD03800F69
:10087000911FDF91CF911F910F91FF90EF90DF902B
:10088000CF9008952AE0B701A601CE01DF91CF9164
:100890001F910F91FF90EF90DF90CF900C94AD03DC
:1008A0000F931F93CF93DF93EC019A01AB0166275F
:1008B00057FD6095762F0E9406048C01CE010E94A0
:1008C0008703800F911FDF91CF911F910F910895A2
:1008D0002115310541F4DC01ED91FC910190F0818D
:1008E000E02D642F09940C94AD039A01462F50E03B
:1008F00060E070E00C9468040F931F93CF93DF9334
:10090000EC010E9468048C01CE010E948703800FD5
:10091000911FDF91CF911F910F9108950E94C20600
:100920000E948700CEE5D5E00E94A9012097E1F35F
:100930000E945E05F9CFFC0124853585F901FE5F33
:1009400080819181329620813181821B930B91703D
:100950000895FC0184859585FC01FE5F40815181ED
:100960003296208131814217530741F00190F08186
:10097000E02DE80FF91F808190E008958FEF9FEF41
:100980000895FC0184859585FC01FE5F40815181BD
:100990003296208131814217530771F0A081B181D5
:1009A000A80FB91F8C91208131812F5F3F4F31708B
:1009B0003183208390E008958FEF9FEF0895FC012D
:1009C00081A1882329F0A489B5898C9186FFFBCF6A
:1009D00011A20895CF93DF93FC0126853785D901B5
:1009E000BE5F8D919C91119701969170E901CE5F48
:1009F000DD4F4881598184179507D9F30D90BC913B
:100A0000A02DA20FB31F6C93A685B785BE5F11966C
:100A10009C938E93A689B7892C9181E090E0078CF6
:100A200002C0880F991F0A94E2F7282B2C9381E0CB
:100A300081A30488F589E02D80818064808381E032
:100A400090E0DF91CF91089508951F920F920FB615
:100A50000F9211242F933F934F938F939F93EF9374
:100A6000FF938091C00082FD1BC04091C600809121
:100A7000090690910A060196917020910B0630911B
:100A80000C068217930771F0E0910906F0910A06AF
:100A9000E75FFB4F408390930A068093090602C0EC
:100AA0008091C600FF91EF919F918F914F913F915F
:100AB0002F910F900FBE0F901F90189583EE91E02D
:100AC0000E949B04892B11F00C94240508951F9219
:100AD0000F920FB60F9211242F933F938F939F93F2
:100AE000EF93FF9320910504309106048091070451
:100AF000909108042817390731F48091C1008F7D47
:100B00008093C10013C0E0910704F0910804EB5FEB
:100B1000FD4F208180910704909108040196917007
:100B200090930804809307042093C600FF91EF91EF
:100B30009F918F913F912F910F900FBE0F901F901B
:100B40001895CF92DF92EF92FF92CF93DF93EC0153
:100B50006A017B01411581EE580761057105F9F0C5
:100B6000EC89FD8981E090E008A002C0880F991F00
:100B70000A94E2F7808360E079E08DE390E0A701DA
:100B800096010E94140721503109410951095695D7
:100B9000479537952795211580E1380798F0EC891E
:100BA000FD89108260E874E88EE190E0A70196016B
:100BB0000E94140721503109410951095695479562
:100BC00037952795E889F9893083EA89FB8920835D
:100BD00019A2EE89FF89408181E090E09C010C8C94
:100BE00002C0220F331F0A94E2F7422B4083EE89A2
:100BF000FF8940819C010D8C02C0220F331F0A9493
:100C0000E2F7422B4083EE89FF8940819C010E8CE4
:100C100002C0220F331F0A94E2F7422B4083EE8971
:100C2000FF8920810F8C02C0880F991F0A94E2F778
:100C3000809582238083DF91CF91FF90EF90DF90AA
:100C4000CF9008951092E6011092E50188EE93E0AE
:100C5000A0E0B0E08093E7019093E801A093E90160
:100C6000B093EA0188E491E09093E4018093E3017A
:100C700089E094E09093F0018093EF0185E092E0A9
:100C80009093F2018093F10185EC90E09093F40150
:100C90008093F30184EC90E09093F6018093F5014A
:100CA00080EC90E09093F8018093F70181EC90E064
:100CB0009093FA018093F90182EC90E09093FC010B
:100CC0008093FB0186EC90E09093FE018093FD0100
:100CD00084E08093FF0183E08093000287E08093AB
:100CE000010285E08093020281E08093030208956F
:100CF0001F920F920FB60F9211242F933F938F9351
:100D00009F93AF93BF9380910E0690910F06A09191
:100D10001006B091110630910D0623E0230F2D37F8
:100D200020F40196A11DB11D05C026E8230F0296EF
:100D3000A11DB11D20930D0680930E0690930F0602
:100D4000A0931006B093110680911206909113069D
:100D5000A0911406B09115060196A11DB11D8093B6
:100D6000120690931306A0931406B0931506BF9134
:100D7000AF919F918F913F912F910F900FBE0F9048
:100D80001F901895789484B5826084BD84B5816085
:100D900084BD85B5826085BD85B5816085BDEEE683
:100DA000F0E0808181608083E1E8F0E01082808162
:100DB00082608083808181608083E0E8F0E08081D0
:100DC00081608083E1EBF0E0808184608083E0EBF0
:100DD000F0E0808181608083EAE7F0E080818460D8
:100DE0008083808182608083808181608083808134
:100DF000806880831092C1000895F8940C94500785
:100E000097FB072E16F4009407D077FD09D00E94B7
:100E1000360707FC05D03EF4909581959F4F0895C5
:100E2000709561957F4F0895A1E21A2EAA1BBB1BF6
:100E3000FD010DC0AA1FBB1FEE1FFF1FA217B307A6
:100E4000E407F50720F0A21BB30BE40BF50B661FBC
:100E5000771F881F991F1A9469F760957095809580
:100E600090959B01AC01BD01CF010895AA1BBB1B4E
:100E700051E107C0AA1FBB1FA617B70710F0A61B9A
:100E8000B70B881F991F5A95A9F780959095BC01BB
:100E9000CD010895EE0FFF1F0590F491E02D099408
:040EA000F894FFCFF4
:100EA40008000B000D00474F0041434B74004143C1
:100EB4004B73004279746573526563656976656442
:100EC4003A0073616D706C653A00506C6179696EBB
:100ED400673A0041434B690041434B6D0041434B2A
:100EE4004D003F0000000000EA0440039B04C104DD
:040EF400A904DF046A
:00000001FF
