:100000000C9462000C948A000C948A000C948A0070
:100010000C948A000C948A000C948A000C948A0038
:100020000C948A000C948A000C948A000C94ED00C5
:100030000C948A000C948A000C948A000C948A0018
:100040000C94C5020C948A000C94E5050C942706C8
:100050000C948A000C948A000C948A000C948A00F8
:100060000C948A000C948A00000000070002010032
:100070000003040600000000000000000102040864
:100080001020408001020408102001020408102002
:10009000040404040404040402020202020203032E
:1000A00003030303000000002300260029000000D2
:1000B0000000250028002B0000000000240027007D
:1000C0002A00E20611241FBECFEFD8E0DEBFCDBF6D
:1000D00011E0A0E0B1E0EEE6FFE002C005900D9275
:1000E000AA31B107D9F725E0AAE1B1E001C01D921C
:1000F000A73EB207E1F710E0C4ECD0E004C02297BD
:10010000FE010E94A207C23CD107C9F70E944E051A
:100110000C9438070C94000061E0809100010E946B
:10012000BC03E6EBF0E080818F798083E0EBF0E0C8
:10013000808183608083A1EBB0E08C91877F8C937A
:1001400080818F738068808380818F7C80838C9195
:10015000887F81608C93E0912C01F0912D01E05D0E
:10016000FE4F80818093B300F894E1E8F0E0808155
:10017000877E88608083A0E8B0E08C918C7F8C9330
:100180008081887F8160808380ED97E090938900F3
:1001900080938800EFE6F0E0808182608083109297
:1001A00028011092290110922A0110922B017894B3
:1001B0000895EFE6F0E080818D7F8083E1E8F0E054
:1001C00080818E7F8083E1EBF0E080818E7F808371
:1001D00060E0809100010C94F5031F920F920FB61E
:1001E0000F9211242F933F934F935F936F937F93BD
:1001F0008F939F93AF93BF93EF93FF934091280109
:100200005091290160912A0170912B018091B001D8
:100210009091B101A091B201B091B3014817590773
:100220006A077B07A8F5E0912C01F0912D01E05DB4
:10023000FE4F80818093B30080912C0190912D011D
:1002400020912E0130912F018217930719F1019609
:10025000803891052CF490932D0180932C0104C0DB
:1002600010922D0110922C0180912801909129016A
:10027000A0912A01B0912B010196A11DB11D80937F
:10028000280190932901A0932A01B0932B0102C069
:100290000E94D900FF91EF91BF91AF919F918F91F3
:1002A0007F916F915F914F913F912F910F900FBE72
:1002B0000F901F9018958F929F92AF92BF92CF92FE
:1002C000DF92EF92FF924B015C0169017A0161E0DC
:1002D00070E080E090E0C114D104E104F10461F029
:1002E00021E0C21AD108E108F1089B01AC01C50167
:1002F000B4010E943B07EFCFFF90EF90DF90CF90CB
:10030000BF90AF909F908F9008958F929F92AF92E1
:10031000BF92CF92DF92EF92FF9261E08091020153
:100320000E94BC0340E052EC61E070E08DEB91E094
:100330000E94610666E071E08DEB91E00E94AD04E1
:100340008DEB91E00E945B050A979CF4809102017D
:100350000E942B0461E0892B09F060E0809102018A
:100360000E94F50364E670E080E090E00E943203B2
:10037000E7CF61E0809102010E94F5031092B00185
:100380001092B1011092B2011092B30189E0C82E0F
:10039000D12CE12CF12C8DEB91E00E948105C097CE
:1003A0004C01AA2497FCA094BA2C80922001909230
:1003B0002101A0922201B0922301A70196016AE0D7
:1003C00070E080E090E00E945B01A50194010E9432
:1003D0003B07DC01CB0180931C0190931D01A0938E
:1003E0001E01B0931F014091B0015091B101609185
:1003F000B2017091B301480F591F6A1F7B1F4093D0
:10040000B0015093B1016093B2017093B30181E0E8
:10041000C81AD108E108F1088FEFC816D806E80617
:10042000F80609F0B8CF2AE030E08DEB91E00E94A9
:100430003C054AE050E060E48DEB91E00E94250528
:1004400010921B0110921A01FF90EF90DF90CF9055
:10045000BF90AF909F908F9008950F931F93CF936D
:10046000DF9380911A0190911B01892B19F0C0E84C
:10047000D0E05DC020912E0130912F0180910401C8
:10048000909105012817390794F381E090E090934B
:100490001B0180931A010E948C00E9CF00912E016C
:1004A00010912F01C8010196BE010E944B072091B7
:1004B0002C0130912D018217930739F18DEB91E0DA
:1004C0000E948105F801E05DFE4F808380912E013E
:1004D00090912F010196BE010E944B0790932F012E
:1004E00080932E018091240190912501A0912601F5
:1004F000B09127010196A11DB11D80932401909315
:100500002501A0932601B0932701809124019091A9
:100510002501A0912601B0912701AC01BD014F73C7
:10052000552766277727452B462B472B49F08DEB20
:1005300091E00E945B05181619060CF4AFCF20C09D
:100540004091B0015091B1016091B2017091B3013D
:100550008A019B01081B190B2A0B3B0B0034110568
:100560002105310528F4642F681B4AE050E003C0E0
:100570004AE050E060E48DEB91E00E942505D7CF82
:10058000DF91CF911F910F9108951F920F920FB697
:100590000F9211242F933F938F939F93AF93BF9309
:1005A0008091B5019091B601A091B701B091B801C9
:1005B0003091B40123E0230F2D3720F40196A11DC3
:1005C000B11D05C026E8230F0296A11DB11D209381
:1005D000B4018093B5019093B601A093B701B09395
:1005E000B8018091B9019091BA01A091BB01B0917D
:1005F000BC010196A11DB11D8093B9019093BA0170
:10060000A093BB01B093BC01BF91AF919F918F911B
:100610003F912F910F900FBE0F901F9018953FB7ED
:10062000F8948091B9019091BA01A091BB01B09169
:10063000BC0126B5A89B05C02F3F19F00196A11D4E
:10064000B11D3FBF6627782F892F9A2F620F711D2A
:10065000811D911D42E0660F771F881F991F4A95E3
:10066000D1F70895CF92DF92EF92FF92CF93DF936D
:100670006B017C010E940F03EB01C114D104E10462
:10068000F10479F00E940F036C1B7D0B683E7340F0
:10069000A0F381E0C81AD108E108F108C851DC4F85
:1006A000ECCFDF91CF91FF90EF90DF90CF90089546
:1006B000789484B5826084BD84B5816084BD85B53D
:1006C000826085BD85B5816085BDEEE6F0E0808104
:1006D00081608083E1E8F0E0108280818260808325
:1006E000808181608083E0E8F0E0808181608083A8
:1006F000E1EBF0E0808184608083E0EBF0E08081DA
:1007000081608083EAE7F0E080818460808380817B
:100710008260808380818160808380818068808323
:100720001092C1000895833081F028F4813099F04F
:100730008230A1F008958630A9F08730B9F0843076
:10074000D1F4809180008F7D03C0809180008F77ED
:1007500080938000089584B58F7702C084B58F7D23
:1007600084BD08958091B0008F7703C08091B00060
:100770008F7D8093B0000895CF93DF9390E0FC01CC
:10078000E458FF4F2491FC01E057FF4F84918823E8
:1007900049F190E0880F991FFC01E854FF4FA591A3
:1007A000B49182559F4FFC01C591D4919FB76111BF
:1007B00008C0F8948C91209582238C9388818223A1
:1007C0000AC0623051F4F8948C91322F3095832313
:1007D0008C938881822B888304C0F8948C91822B1F
:1007E0008C939FBFDF91CF9108950F931F93CF9369
:1007F000DF931F92CDB7DEB7282F30E0F901E8591B
:10080000FF4F8491F901E458FF4F1491F901E0572B
:10081000FF4F04910023C9F0882321F069830E94CF
:1008200093036981E02FF0E0EE0FFF1FE255FF4FC9
:10083000A591B4919FB7F8948C91611103C0109564
:10084000812301C0812B8C939FBF0F90DF91CF91AB
:100850001F910F910895CF93DF93282F30E0F90176
:10086000E859FF4F8491F901E458FF4FD491F90101
:10087000E057FF4FC491CC2391F081110E94930364
:10088000EC2FF0E0EE0FFF1FEC55FF4FA591B49158
:100890002C912D2381E090E021F480E002C080E0E3
:1008A00090E0DF91CF910895CF92DF92EF92FF9287
:1008B0000F931F93CF93DF936C017A01EB01E60E48
:1008C000F71E00E010E0CE15DF0561F06991D6015A
:1008D000ED91FC910190F081E02DC6010995080F82
:1008E000191FF1CFC801DF91CF911F910F91FF9098
:1008F000EF90DF90CF9008956115710581F0DB01D5
:100900000D900020E9F7AD0141505109461B570BEE
:10091000DC01ED91FC910280F381E02D099480E0EF
:1009200090E00895DC01ED91FC910190F081E02DC3
:1009300009940F931F93CF93DF93EC016DE00E9416
:1009400092048C016AE0CE010E949204800F911FF4
:10095000DF91CF911F910F9108950F931F93CF9324
:10096000DF93EC010E947C048C01CE010E9499046B
:10097000800F911FDF91CF911F910F9108958F925A
:100980009F92AF92BF92CF92DF92EF92FF920F931E
:100990001F93CF93DF93CDB7DEB7A1970FB6F8942F
:1009A000DEBF0FBECDBF7C01C42EE52FCB01D22E02
:1009B00019A221E02D1510F02AE0D22E8E010F5D34
:1009C0001F4F8D2C912CA12CB12C6C2D7E2FA501AD
:1009D00094010E945F078C2DD29E80191124015032
:1009E00011098A3014F4805D01C0895CF8018083AC
:1009F000211531054105510521F0C22EE32FCA0111
:100A0000E4CFB801C7010E947C04A1960FB6F89408
:100A1000DEBF0FBECDBFDF91CF911F910F91FF9031
:100A2000EF90DF90CF90BF90AF909F908F90089500
:100A30002115310541F4DC01ED91FC910190F0812B
:100A4000E02D642F09940C94BF040F931F93CF9350
:100A5000DF93EC019A01462F50E060E070E00E94C5
:100A600018058C01CE010E949904800F911FDF911F
:100A7000CF911F910F9108950F931F93CF93DF9301
:100A8000EC010E9418058C01CE010E949904800F90
:100A9000911FDF91CF911F910F9108950E945803EC
:100AA0000E948501CEE1D6E00E942D022097E1F35D
:100AB0000E941E06F9CFFC0124853585F901FE5FF1
:100AC00080819181329620813181821B930B9170BC
:100AD0000895FC0184859585FC01FE5F408151816C
:100AE0003296208131814217530741F00190F08105
:100AF000E02DE80FF91F808190E008958FEF9FEFC0
:100B00000895FC0184859585FC01FE5F408151813B
:100B10003296208131814217530771F0A081B18153
:100B2000A80FB91F8C91208131812F5F3F4F317009
:100B30003183208390E008958FEF9FEF0895FC01AB
:100B400081A1882329F0A489B5898C9186FFFBCFE8
:100B500011A20895CF93DF93FC0126853785D90133
:100B6000BE5F8D919C91119701969170E901CE5FC6
:100B7000DD4F4881598184179507D9F30D90BC91B9
:100B8000A02DA20FB31F6C93A685B785BE5F1196EB
:100B90009C938E93A689B7892C9181E090E0078C75
:100BA00002C0880F991F0A94E2F7282B2C9381E04A
:100BB00081A30488F589E02D80818064808381E0B1
:100BC00090E0DF91CF91089508951F920F920FB694
:100BD0000F9211242F933F934F938F939F93EF93F3
:100BE000FF938091C00082FD1BC04091C6008091A0
:100BF000E3059091E405019691702091E50530910F
:100C0000E6058217930771F0E091E305F091E405A2
:100C1000ED51FC4F40839093E4058093E30502C0BF
:100C20008091C600FF91EF919F918F914F913F91DD
:100C30002F910F900FBE0F901F9018958DEB91E0A4
:100C40000E945B05892B11F00C94E40508951F9216
:100C50000F920FB60F9211242F933F938F939F9370
:100C6000EF93FF932091DF033091E0038091E10344
:100C70009091E2032817390731F48091C1008F7DEC
:100C80008093C10013C0E091E103F091E203E152CF
:100C9000FE4F20818091E1039091E20301969170D3
:100CA0009093E2038093E1032093C600FF91EF91BC
:100CB0009F918F913F912F910F900FBE0F901F909A
:100CC0001895CF92DF92EF92FF92CF93DF93EC01D2
:100CD0006A017B01411581EE580761057105F9F044
:100CE000EC89FD8981E090E008A002C0880F991F7F
:100CF0000A94E2F7808360E079E08DE390E0A70159
:100D000096010E945F07215031094109510956950A
:100D1000479537952795211580E1380798F0EC899C
:100D2000FD89108260E874E88EE190E0A7019601E9
:100D30000E945F0721503109410951095695479595
:100D400037952795E889F9893083EA89FB892083DB
:100D500019A2EE89FF89408181E090E09C010C8C12
:100D600002C0220F331F0A94E2F7422B4083EE8920
:100D7000FF8940819C010D8C02C0220F331F0A9411
:100D8000E2F7422B4083EE89FF8940819C010E8C63
:100D900002C0220F331F0A94E2F7422B4083EE89F0
:100DA000FF8920810F8C02C0880F991F0A94E2F7F7
:100DB000809582238083DF91CF91FF90EF90DF9029
:100DC000CF9008951092C0011092BF0188EE93E079
:100DD000A0E0B0E08093C1019093C201A093C30151
:100DE000B093C4018DE091E09093BE018093BD016A
:100DF00083EE93E09093CA018093C9018FED91E057
:100E00009093CC018093CB0185EC90E09093CE0140
:100E10008093CD0184EC90E09093D0018093CF013A
:100E200080EC90E09093D2018093D10181EC90E02E
:100E30009093D4018093D30182EC90E09093D601FB
:100E40008093D50186EC90E09093D8018093D701F0
:100E500084E08093D90183E08093DA0187E0809376
:100E6000DB0185E08093DC0181E08093DD01089562
:100E7000F8940C94B507DB018F939F930E94810730
:100E8000BF91AF91A29F800D911DA39F900DB29F26
:100E9000900D1124089597FB072E16F4009407D0A7
:100EA00077FD09D00E948C0707FC05D03EF4909591
:100EB00081959F4F0895709561957F4F0895A1E2A8
:100EC0001A2EAA1BBB1BFD010DC0AA1FBB1FEE1FC4
:100ED000FF1FA217B307E407F50720F0A21BB30B0F
:100EE000E40BF50B661F771F881F991F1A9469F78B
:100EF00060957095809590959B01AC01BD01CF01E7
:100F000008950E94A607A59F900DB49F900DA49FE1
:100F1000800D911D11240895AA1BBB1B51E107C030
:100F2000AA1FBB1FA617B70710F0A61BB70B881F79
:100F3000991F5A95A9F780959095BC01CD01089508
:100F4000EE0FFF1F0590F491E02D0994A29FB001D0
:100F5000B39FC001A39F700D811D1124911DB29FED
:0E0F6000700D811D1124911D0895F894FFCF8E
:100F6E000B000D004000474F0000000000AA055482
:0A0F7E00045B05810569059F05006D
:00000001FF
